S01700006F70656E6C6F675F70726F6A6563742E73726563C3
S11300000C9434000C9451000C9451000C94510045
S11300100C9451000C9451000C9451000C94510018
S11300200C9451000C9451000C9451000C94510008
S11300300C9451000C94BF010C9451000C94510089
S11300400C94A5000C9451000C94FD000C945100E8
S11300500C9451000C9451000C9451000C945100D8
S11300600C9451000C94510011241FBECFEFD8E022
S1130070DEBFCDBF11E0A0E0B1E0E0EAF4E002C0F1
S113008005900D92A235B107D9F722E0A2E5B1E0BF
S113009001C01D92A535B207E1F70E9486000C94B9
S11300A04E020C94000065BD86BDEEE6F0E0808152
S11300B08E7F8083089510928000609381009093D6
S11300C0850080938400EFE6F0E0108280818E7FCB
S11300D080830895259A2D98089563E085E00E9411
S11300E0530064E08DEE95E80C945B00E1ECF0E0E5
S11300F0808188698083E2ECF0E08081866080837F
S11301001092C50087E68093C40008950E946A0097
S11301100E946D000E94300280E090E0089580917A
S11301205201813021F4809153018D3738F480914C
S11301305201823049F480915301089595B180E2CF
S1130140892785B91092530108951F920F920FB613
S11301500F9211242F933F934F935F936F937F9349
S11301608F939F93AF93BF93EF93FF9385E086BDE7
S1130170809153018F5F809353010E948F00FF9100
S1130180EF91BF91AF919F918F917F916F915F910B
S11301904F913F912F910F900FBE0F901F90189584
S11301A09091C00095FFFCCF8093C6008091C00061
S11301B086FFFCCF8091C00080648093C0000895C6
S11301C0EF92FF920F931F93CF93DF937C018C01E7
S11301D0C62FD0E0C8018E199F098C179D0734F4EF
S11301E0F80181918F010E94D000F4CFDF91CF916B
S11301F01F910F91FF90EF9008951F920F920FB6E9
S11302000F9211241F932F933F934F935F936F93F8
S11302107F938F939F93AF93BF93CF93DF93EF938A
S1130220FF93A1ECB0E08C918F778C938091540173
S1130230E091540181E08E0F809354018091C600B7
S1130240F0E0EB5AFE4F80838C9180688C93C6B3A8
S113025067E080E091E00E94E0008C2F0E94D000D3
S113026062E088E091E00E94E000CFE6D0E01881EF
S113027068E08BE091E00E94E000812F0E94D000B2
S113028062E088E091E00E94E0008DEE95E89093B2
S113029085008093840081E08883FF91EF91DF9152
S11302A0CF91BF91AF919F918F917F916F915F910A
S11302B04F913F912F911F910F900FBE0F901F9060
S11302C01895FF920F931F93CF93DF938C01F62E13
S11302D046E050E064E171E00E944002EC01892BA9
S11302E039F480916E008E7F80936E002D9A40C009
S11302F047E050E06BE171E0C8010E944002EC016C
S1130300892B39F480916E008E7F80936E002D9836
S11303102FC049E050E063E271E0C8010E9440024E
S1130320EC01892B69F481E08093520185E086BD5C
S11303301092530180916E00816080936E0018C00A
S113034045E050E06DE271E0C8010E944002EC011A
S1130350892B61F480916E008E7F80936E006BEF29
S11303606F0DC80105960E94E00002C0CFEFDFEFD9
S1130370CE01DF91CF911F910F91FF9008951F92AD
S11303800F920FB60F9211242F933F934F935F93C5
S11303906F937F938F939F93AF93BF93CF93EF9379
S11303A0FF93C6B367E083E391E00E94E0008C2FE3
S11303B00E94D00062E088E091E00E94E000C091D9
S11303C06F0068E08BE391E00E94E0008C2F0E94B4
S11303D0D00062E088E091E00E94E00010926F009B
S11303E08DEE95E89093850080938400609154018C
S11303F085E591E00E946101019621F46CE084E4BA
S113040091E003C064E08CE491E00E94E00060911C
S1130410540185E591E00E94E00062E088E091E00B
S11304200E94E0001092540180E091E0E5E5F1E0E3
S1130430DF019C011D9221503040E1F7FF91EF91C3
S1130440CF91BF91AF919F918F917F916F915F9168
S11304504F913F912F910F900FBE0F901F901895C1
S11304600E94760080E091E0E5E5F1E0DF019C0187
S11304701D9221503040E1F78FB780688FBFFFCFC6
S1130480FB01DC014150504030F08D910190801906
S113049019F40020B9F7881B990B0895F894FFCF3D
S11304A05449465231313A000D0A0054494D534BD8
S11304B031313A004C4544204F4E004C4544204FC6
S11304C04646004C4544204845415254005541524B
S11304D0543A005449465231323A0054494D534B30
S11304E031323A00556E6B6E6F776E20636D643AED
S10504F0000006
S9030000FC
